{
  "contractName": "Registry",
  "abi": [
    {
      "inputs": [
        {
          "internalType": "address",
          "name": "_token",
          "type": "address"
        }
      ],
      "stateMutability": "nonpayable",
      "type": "constructor"
    },
    {
      "anonymous": false,
      "inputs": [
        {
          "indexed": false,
          "internalType": "uint256",
          "name": "id",
          "type": "uint256"
        },
        {
          "indexed": false,
          "internalType": "string",
          "name": "name",
          "type": "string"
        },
        {
          "indexed": false,
          "internalType": "uint256",
          "name": "proposalId",
          "type": "uint256"
        }
      ],
      "name": "List",
      "type": "event"
    },
    {
      "anonymous": false,
      "inputs": [
        {
          "indexed": true,
          "internalType": "address",
          "name": "previousOwner",
          "type": "address"
        },
        {
          "indexed": true,
          "internalType": "address",
          "name": "newOwner",
          "type": "address"
        }
      ],
      "name": "OwnershipTransferred",
      "type": "event"
    },
    {
      "inputs": [],
      "name": "allowVoting",
      "outputs": [
        {
          "internalType": "bool",
          "name": "",
          "type": "bool"
        }
      ],
      "stateMutability": "view",
      "type": "function",
      "constant": true
    },
    {
      "inputs": [
        {
          "internalType": "uint256",
          "name": "",
          "type": "uint256"
        },
        {
          "internalType": "address",
          "name": "",
          "type": "address"
        }
      ],
      "name": "hasRedeemed",
      "outputs": [
        {
          "internalType": "bool",
          "name": "",
          "type": "bool"
        }
      ],
      "stateMutability": "view",
      "type": "function",
      "constant": true
    },
    {
      "inputs": [
        {
          "internalType": "uint256",
          "name": "",
          "type": "uint256"
        },
        {
          "internalType": "address",
          "name": "",
          "type": "address"
        }
      ],
      "name": "hasVoted",
      "outputs": [
        {
          "internalType": "bool",
          "name": "",
          "type": "bool"
        }
      ],
      "stateMutability": "view",
      "type": "function",
      "constant": true
    },
    {
      "inputs": [],
      "name": "isChallenged",
      "outputs": [
        {
          "internalType": "bool",
          "name": "",
          "type": "bool"
        }
      ],
      "stateMutability": "view",
      "type": "function",
      "constant": true
    },
    {
      "inputs": [],
      "name": "isProposed",
      "outputs": [
        {
          "internalType": "bool",
          "name": "",
          "type": "bool"
        }
      ],
      "stateMutability": "view",
      "type": "function",
      "constant": true
    },
    {
      "inputs": [
        {
          "internalType": "uint256",
          "name": "",
          "type": "uint256"
        }
      ],
      "name": "list",
      "outputs": [
        {
          "internalType": "uint256",
          "name": "id",
          "type": "uint256"
        },
        {
          "internalType": "string",
          "name": "name",
          "type": "string"
        }
      ],
      "stateMutability": "view",
      "type": "function",
      "constant": true
    },
    {
      "inputs": [],
      "name": "owner",
      "outputs": [
        {
          "internalType": "address",
          "name": "",
          "type": "address"
        }
      ],
      "stateMutability": "view",
      "type": "function",
      "constant": true
    },
    {
      "inputs": [
        {
          "internalType": "uint256",
          "name": "",
          "type": "uint256"
        }
      ],
      "name": "proposalState",
      "outputs": [
        {
          "internalType": "uint256",
          "name": "",
          "type": "uint256"
        }
      ],
      "stateMutability": "view",
      "type": "function",
      "constant": true
    },
    {
      "inputs": [],
      "name": "proposedBlockNumber",
      "outputs": [
        {
          "internalType": "uint256",
          "name": "",
          "type": "uint256"
        }
      ],
      "stateMutability": "view",
      "type": "function",
      "constant": true
    },
    {
      "inputs": [],
      "name": "renounceOwnership",
      "outputs": [],
      "stateMutability": "nonpayable",
      "type": "function"
    },
    {
      "inputs": [],
      "name": "token",
      "outputs": [
        {
          "internalType": "contract Token",
          "name": "",
          "type": "address"
        }
      ],
      "stateMutability": "view",
      "type": "function",
      "constant": true
    },
    {
      "inputs": [
        {
          "internalType": "address",
          "name": "newOwner",
          "type": "address"
        }
      ],
      "name": "transferOwnership",
      "outputs": [],
      "stateMutability": "nonpayable",
      "type": "function"
    },
    {
      "inputs": [
        {
          "internalType": "uint256",
          "name": "",
          "type": "uint256"
        }
      ],
      "name": "voterRewards",
      "outputs": [
        {
          "internalType": "uint256",
          "name": "",
          "type": "uint256"
        }
      ],
      "stateMutability": "view",
      "type": "function",
      "constant": true
    },
    {
      "inputs": [
        {
          "internalType": "uint256",
          "name": "",
          "type": "uint256"
        },
        {
          "internalType": "address",
          "name": "",
          "type": "address"
        }
      ],
      "name": "voterStance",
      "outputs": [
        {
          "internalType": "uint256",
          "name": "",
          "type": "uint256"
        }
      ],
      "stateMutability": "view",
      "type": "function",
      "constant": true
    },
    {
      "inputs": [
        {
          "internalType": "string",
          "name": "_name",
          "type": "string"
        }
      ],
      "name": "propose",
      "outputs": [],
      "stateMutability": "nonpayable",
      "type": "function"
    },
    {
      "inputs": [
        {
          "internalType": "string",
          "name": "_name",
          "type": "string"
        }
      ],
      "name": "challenge",
      "outputs": [],
      "stateMutability": "nonpayable",
      "type": "function"
    },
    {
      "inputs": [
        {
          "internalType": "bool",
          "name": "_isFor",
          "type": "bool"
        }
      ],
      "name": "vote",
      "outputs": [],
      "stateMutability": "nonpayable",
      "type": "function"
    },
    {
      "inputs": [],
      "name": "approveProposal",
      "outputs": [],
      "stateMutability": "nonpayable",
      "type": "function"
    },
    {
      "inputs": [],
      "name": "rejectProposal",
      "outputs": [],
      "stateMutability": "nonpayable",
      "type": "function"
    },
    {
      "inputs": [
        {
          "internalType": "uint256",
          "name": "_proposalId",
          "type": "uint256"
        }
      ],
      "name": "redeem",
      "outputs": [],
      "stateMutability": "nonpayable",
      "type": "function"
    },
    {
      "inputs": [],
      "name": "getProposalEndBlock",
      "outputs": [
        {
          "internalType": "uint256",
          "name": "",
          "type": "uint256"
        }
      ],
      "stateMutability": "view",
      "type": "function",
      "constant": true
    }
  ],
  "bytecode": "0x608060405268056bc75e2d63100000600655600260075560036008556000600b556000600e556000600f5560006010553480156200003c57600080fd5b5060405162002db338038062002db3833981810160405281019062000062919062000200565b6200008262000076620000ca60201b60201c565b620000d260201b60201c565b80600160006101000a81548173ffffffffffffffffffffffffffffffffffffffff021916908373ffffffffffffffffffffffffffffffffffffffff1602179055505062000232565b600033905090565b60008060009054906101000a900473ffffffffffffffffffffffffffffffffffffffff169050816000806101000a81548173ffffffffffffffffffffffffffffffffffffffff021916908373ffffffffffffffffffffffffffffffffffffffff1602179055508173ffffffffffffffffffffffffffffffffffffffff168173ffffffffffffffffffffffffffffffffffffffff167f8be0079c531659141344cd1fd0a4f28419497f9722a3daafe3b4186f6b6457e060405160405180910390a35050565b600080fd5b600073ffffffffffffffffffffffffffffffffffffffff82169050919050565b6000620001c8826200019b565b9050919050565b620001da81620001bb565b8114620001e657600080fd5b50565b600081519050620001fa81620001cf565b92915050565b60006020828403121562000219576200021862000196565b5b60006200022984828501620001e9565b91505092915050565b612b7180620002426000396000f3fe608060405234801561001057600080fd5b50600436106101375760003560e01c80639be4cc8c116100b8578063d26331d41161007c578063d26331d414610305578063d8df86f714610335578063db006a7514610353578063df42e8c51461036f578063f2fde38b1461039f578063fc0c546a146103bb57610137565b80639be4cc8c146102615780639df4d0fe1461026b578063aa98df3914610289578063b48b92a2146102a5578063d23c80ff146102d557610137565b8063715018a6116100ff578063715018a6146101e05780637e056b91146101ea57806380c9419e146101f45780638324a0be146102255780638da5cb5b1461024357610137565b80633ed295ec1461013c578063438596321461015a5780634958bf591461018a5780634b9f5c98146101a857806358f5382e146101c4575b600080fd5b6101446103d9565b6040516101519190611cca565b60405180910390f35b610174600480360381019061016f9190611d8d565b6103ec565b6040516101819190611cca565b60405180910390f35b61019261041b565b60405161019f9190611ddc565b60405180910390f35b6101c260048036038101906101bd9190611e23565b610421565b005b6101de60048036038101906101d99190611f96565b610881565b005b6101e8610ad7565b005b6101f2610b5f565b005b61020e60048036038101906102099190611fdf565b610e98565b60405161021c929190612094565b60405180910390f35b61022d610f44565b60405161023a9190611ddc565b60405180910390f35b61024b610f68565b60405161025891906120d3565b60405180910390f35b610269610f91565b005b610273611264565b6040516102809190611cca565b60405180910390f35b6102a3600480360381019061029e9190611f96565b611277565b005b6102bf60048036038101906102ba9190611fdf565b61141a565b6040516102cc9190611ddc565b60405180910390f35b6102ef60048036038101906102ea9190611d8d565b611432565b6040516102fc9190611ddc565b60405180910390f35b61031f600480360381019061031a9190611fdf565b611457565b60405161032c9190611ddc565b60405180910390f35b61033d61146f565b60405161034a9190611cca565b60405180910390f35b61036d60048036038101906103689190611fdf565b611482565b005b61038960048036038101906103849190611d8d565b611788565b6040516103969190611cca565b60405180910390f35b6103b960048036038101906103b491906120ee565b6117b7565b005b6103c36118af565b6040516103d0919061217a565b60405180910390f35b600a60009054906101000a900460ff1681565b60126020528160005260406000206020528060005260406000206000915091509054906101000a900460ff1681565b60095481565b600a60009054906101000a900460ff16610470576040517f08c379a0000000000000000000000000000000000000000000000000000000008152600401610467906121e1565b60405180910390fd5b6000151560126000600b54815260200190815260200160002060003373ffffffffffffffffffffffffffffffffffffffff1673ffffffffffffffffffffffffffffffffffffffff16815260200190815260200160002060009054906101000a900460ff16151514610516576040517f08c379a000000000000000000000000000000000000000000000000000000000815260040161050d9061224d565b60405180910390fd5b600754600954610526919061229c565b4311610567576040517f08c379a000000000000000000000000000000000000000000000000000000000815260040161055e9061233e565b60405180910390fd5b600854600754610577919061229c565b600954610584919061229c565b4311156105c6576040517f08c379a00000000000000000000000000000000000000000000000000000000081526004016105bd906123aa565b60405180910390fd5b600160126000600b54815260200190815260200160002060003373ffffffffffffffffffffffffffffffffffffffff1673ffffffffffffffffffffffffffffffffffffffff16815260200190815260200160002060006101000a81548160ff0219169083151502179055506001601054610640919061229c565b601081905550801561076757600160009054906101000a900473ffffffffffffffffffffffffffffffffffffffff1673ffffffffffffffffffffffffffffffffffffffff16639ab24eb0336040518263ffffffff1660e01b81526004016106a791906120d3565b60206040518083038186803b1580156106bf57600080fd5b505afa1580156106d3573d6000803e3d6000fd5b505050506040513d601f19601f820116820180604052508101906106f791906123df565b600e54610704919061229c565b600e81905550600160146000600b54815260200190815260200160002060003373ffffffffffffffffffffffffffffffffffffffff1673ffffffffffffffffffffffffffffffffffffffff1681526020019081526020016000208190555061087e565b600160009054906101000a900473ffffffffffffffffffffffffffffffffffffffff1673ffffffffffffffffffffffffffffffffffffffff16639ab24eb0336040518263ffffffff1660e01b81526004016107c291906120d3565b60206040518083038186803b1580156107da57600080fd5b505afa1580156107ee573d6000803e3d6000fd5b505050506040513d601f19601f8201168201806040525081019061081291906123df565b600f5461081f919061229c565b600f81905550600260146000600b54815260200190815260200160002060003373ffffffffffffffffffffffffffffffffffffffff1673ffffffffffffffffffffffffffffffffffffffff168152602001908152602001600020819055505b50565b600a60019054906101000a900460ff166108d0576040517f08c379a00000000000000000000000000000000000000000000000000000000081526004016108c790612458565b60405180910390fd5b3373ffffffffffffffffffffffffffffffffffffffff16600c60009054906101000a900473ffffffffffffffffffffffffffffffffffffffff1673ffffffffffffffffffffffffffffffffffffffff161415610961576040517f08c379a0000000000000000000000000000000000000000000000000000000008152600401610958906124c4565b60405180910390fd5b600160009054906101000a900473ffffffffffffffffffffffffffffffffffffffff1673ffffffffffffffffffffffffffffffffffffffff166323b872dd33306006546040518463ffffffff1660e01b81526004016109c2939291906124e4565b602060405180830381600087803b1580156109dc57600080fd5b505af11580156109f0573d6000803e3d6000fd5b505050506040513d601f19601f82011682018060405250810190610a149190612530565b610a1d57600080fd5b806004600160028110610a3357610a3261255d565b5b019080519060200190610a47929190611c0c565b506001600a60026101000a81548160ff02191690831515021790555033600d60006101000a81548173ffffffffffffffffffffffffffffffffffffffff021916908373ffffffffffffffffffffffffffffffffffffffff1602179055506001600b54610ab3919061229c565b600b819055506001600a60006101000a81548160ff02191690831515021790555050565b610adf6118d5565b73ffffffffffffffffffffffffffffffffffffffff16610afd610f68565b73ffffffffffffffffffffffffffffffffffffffff1614610b53576040517f08c379a0000000000000000000000000000000000000000000000000000000008152600401610b4a906125d8565b60405180910390fd5b610b5d60006118dd565b565b610b676118d5565b73ffffffffffffffffffffffffffffffffffffffff16610b85610f68565b73ffffffffffffffffffffffffffffffffffffffff1614610bdb576040517f08c379a0000000000000000000000000000000000000000000000000000000008152600401610bd2906125d8565b60405180910390fd5b600754600954610beb919061229c565b4311610c2c576040517f08c379a0000000000000000000000000000000000000000000000000000000008152600401610c2390612644565b60405180910390fd5b600a60029054906101000a900460ff1615610ce657600854600754610c51919061229c565b600954610c5e919061229c565b4311610c9f576040517f08c379a0000000000000000000000000000000000000000000000000000000008152600401610c96906126b0565b60405180910390fd5b600f54600e5411610ce5576040517f08c379a0000000000000000000000000000000000000000000000000000000008152600401610cdc9061271c565b60405180910390fd5b5b600160156000600b548152602001908152602001600020819055506001600254610d10919061229c565b600281905550604051806040016040528060025481526020016004600060028110610d3e57610d3d61255d565b5b018054610d4a9061276b565b80601f0160208091040260200160405190810160405280929190818152602001828054610d769061276b565b8015610dc35780601f10610d9857610100808354040283529160200191610dc3565b820191906000526020600020905b815481529060010190602001808311610da657829003601f168201915b5050505050815250600360006002548152602001908152602001600020600082015181600001556020820151816001019080519060200190610e06929190611c0c565b50905050610e38600c60009054906101000a900473ffffffffffffffffffffffffffffffffffffffff16600b546119a1565b610e40611aa9565b7f69a64c67aa5b8f0624d511d04ba9125eae1fab277df05b7bef140c457ae20f3d600254600360006002548152602001908152602001600020600101600b54604051610e8e93929190612832565b60405180910390a1565b6003602052806000526040600020600091509050806000015490806001018054610ec19061276b565b80601f0160208091040260200160405190810160405280929190818152602001828054610eed9061276b565b8015610f3a5780601f10610f0f57610100808354040283529160200191610f3a565b820191906000526020600020905b815481529060010190602001808311610f1d57829003601f168201915b5050505050905082565b6000600854600754610f56919061229c565b600954610f63919061229c565b905090565b60008060009054906101000a900473ffffffffffffffffffffffffffffffffffffffff16905090565b610f996118d5565b73ffffffffffffffffffffffffffffffffffffffff16610fb7610f68565b73ffffffffffffffffffffffffffffffffffffffff161461100d576040517f08c379a0000000000000000000000000000000000000000000000000000000008152600401611004906125d8565b60405180910390fd5b60085460075461101d919061229c565b60095461102a919061229c565b431161106b576040517f08c379a0000000000000000000000000000000000000000000000000000000008152600401611062906126b0565b60405180910390fd5b600e54600f5410156110b2576040517f08c379a00000000000000000000000000000000000000000000000000000000081526004016110a9906128bc565b60405180910390fd5b600260156000600b5481526020019081526020016000208190555060016002546110dc919061229c565b60028190555060405180604001604052806002548152602001600460016002811061110a5761110961255d565b5b0180546111169061276b565b80601f01602080910402602001604051908101604052809291908181526020018280546111429061276b565b801561118f5780601f106111645761010080835404028352916020019161118f565b820191906000526020600020905b81548152906001019060200180831161117257829003601f168201915b50505050508152506003600060025481526020019081526020016000206000820151816000015560208201518160010190805190602001906111d2929190611c0c565b50905050611204600d60009054906101000a900473ffffffffffffffffffffffffffffffffffffffff16600b546119a1565b61120c611aa9565b7f69a64c67aa5b8f0624d511d04ba9125eae1fab277df05b7bef140c457ae20f3d600254600360006002548152602001908152602001600020600101600b5460405161125a93929190612832565b60405180910390a1565b600a60029054906101000a900460ff1681565b60001515600a60019054906101000a900460ff161515146112cd576040517f08c379a00000000000000000000000000000000000000000000000000000000081526004016112c490612928565b60405180910390fd5b600160009054906101000a900473ffffffffffffffffffffffffffffffffffffffff1673ffffffffffffffffffffffffffffffffffffffff166323b872dd33306006546040518463ffffffff1660e01b815260040161132e939291906124e4565b602060405180830381600087803b15801561134857600080fd5b505af115801561135c573d6000803e3d6000fd5b505050506040513d601f19601f820116820180604052508101906113809190612530565b61138957600080fd5b80600460006002811061139f5761139e61255d565b5b0190805190602001906113b3929190611c0c565b506001600a60016101000a81548160ff02191690831515021790555033600c60006101000a81548173ffffffffffffffffffffffffffffffffffffffff021916908373ffffffffffffffffffffffffffffffffffffffff1602179055504360098190555050565b60116020528060005260406000206000915090505481565b6014602052816000526040600020602052806000526040600020600091509150505481565b60156020528060005260406000206000915090505481565b600a60019054906101000a900460ff1681565b600115156012600083815260200190815260200160002060003373ffffffffffffffffffffffffffffffffffffffff1673ffffffffffffffffffffffffffffffffffffffff16815260200190815260200160002060009054906101000a900460ff161515146114f057600080fd5b600060116000838152602001908152602001600020541161151057600080fd5b60156000828152602001908152602001600020546014600083815260200190815260200160002060003373ffffffffffffffffffffffffffffffffffffffff1673ffffffffffffffffffffffffffffffffffffffff16815260200190815260200160002054146115b5576040517f08c379a00000000000000000000000000000000000000000000000000000000081526004016115ac90612994565b60405180910390fd5b600015156013600083815260200190815260200160002060003373ffffffffffffffffffffffffffffffffffffffff1673ffffffffffffffffffffffffffffffffffffffff16815260200190815260200160002060009054906101000a900460ff16151514611659576040517f08c379a000000000000000000000000000000000000000000000000000000000815260040161165090612a00565b60405180910390fd5b60016013600083815260200190815260200160002060003373ffffffffffffffffffffffffffffffffffffffff1673ffffffffffffffffffffffffffffffffffffffff16815260200190815260200160002060006101000a81548160ff021916908315150217905550600160009054906101000a900473ffffffffffffffffffffffffffffffffffffffff1673ffffffffffffffffffffffffffffffffffffffff1663a9059cbb3360116000858152602001908152602001600020546040518363ffffffff1660e01b8152600401611732929190612a20565b602060405180830381600087803b15801561174c57600080fd5b505af1158015611760573d6000803e3d6000fd5b505050506040513d601f19601f820116820180604052508101906117849190612530565b5050565b60136020528160005260406000206020528060005260406000206000915091509054906101000a900460ff1681565b6117bf6118d5565b73ffffffffffffffffffffffffffffffffffffffff166117dd610f68565b73ffffffffffffffffffffffffffffffffffffffff1614611833576040517f08c379a000000000000000000000000000000000000000000000000000000000815260040161182a906125d8565b60405180910390fd5b600073ffffffffffffffffffffffffffffffffffffffff168173ffffffffffffffffffffffffffffffffffffffff1614156118a3576040517f08c379a000000000000000000000000000000000000000000000000000000000815260040161189a90612abb565b60405180910390fd5b6118ac816118dd565b50565b600160009054906101000a900473ffffffffffffffffffffffffffffffffffffffff1681565b600033905090565b60008060009054906101000a900473ffffffffffffffffffffffffffffffffffffffff169050816000806101000a81548173ffffffffffffffffffffffffffffffffffffffff021916908373ffffffffffffffffffffffffffffffffffffffff1602179055508173ffffffffffffffffffffffffffffffffffffffff168173ffffffffffffffffffffffffffffffffffffffff167f8be0079c531659141344cd1fd0a4f28419497f9722a3daafe3b4186f6b6457e060405160405180910390a35050565b600060026006546119b29190612b0a565b6006546119bf919061229c565b9050600160009054906101000a900473ffffffffffffffffffffffffffffffffffffffff1673ffffffffffffffffffffffffffffffffffffffff1663a9059cbb84836040518363ffffffff1660e01b8152600401611a1e929190612a20565b602060405180830381600087803b158015611a3857600080fd5b505af1158015611a4c573d6000803e3d6000fd5b505050506040513d601f19601f82011682018060405250810190611a709190612530565b506010546002600654611a839190612b0a565b611a8d9190612b0a565b6011600084815260200190815260200160002081905550505050565b604051806020016040528060008152506004600060028110611ace57611acd61255d565b5b019080519060200190611ae2929190611c0c565b50604051806020016040528060008152506004600160028110611b0857611b0761255d565b5b019080519060200190611b1c929190611c0c565b506000600a60006101000a81548160ff0219169083151502179055506000600a60016101000a81548160ff0219169083151502179055506000600a60026101000a81548160ff0219169083151502179055506000600c60006101000a81548173ffffffffffffffffffffffffffffffffffffffff021916908373ffffffffffffffffffffffffffffffffffffffff1602179055506000600d60006101000a81548173ffffffffffffffffffffffffffffffffffffffff021916908373ffffffffffffffffffffffffffffffffffffffff1602179055506000600e819055506000600f819055506000601081905550565b828054611c189061276b565b90600052602060002090601f016020900481019282611c3a5760008555611c81565b82601f10611c5357805160ff1916838001178555611c81565b82800160010185558215611c81579182015b82811115611c80578251825591602001919060010190611c65565b5b509050611c8e9190611c92565b5090565b5b80821115611cab576000816000905550600101611c93565b5090565b60008115159050919050565b611cc481611caf565b82525050565b6000602082019050611cdf6000830184611cbb565b92915050565b6000604051905090565b600080fd5b600080fd5b6000819050919050565b611d0c81611cf9565b8114611d1757600080fd5b50565b600081359050611d2981611d03565b92915050565b600073ffffffffffffffffffffffffffffffffffffffff82169050919050565b6000611d5a82611d2f565b9050919050565b611d6a81611d4f565b8114611d7557600080fd5b50565b600081359050611d8781611d61565b92915050565b60008060408385031215611da457611da3611cef565b5b6000611db285828601611d1a565b9250506020611dc385828601611d78565b9150509250929050565b611dd681611cf9565b82525050565b6000602082019050611df16000830184611dcd565b92915050565b611e0081611caf565b8114611e0b57600080fd5b50565b600081359050611e1d81611df7565b92915050565b600060208284031215611e3957611e38611cef565b5b6000611e4784828501611e0e565b91505092915050565b600080fd5b600080fd5b6000601f19601f8301169050919050565b7f4e487b7100000000000000000000000000000000000000000000000000000000600052604160045260246000fd5b611ea382611e5a565b810181811067ffffffffffffffff82111715611ec257611ec1611e6b565b5b80604052505050565b6000611ed5611ce5565b9050611ee18282611e9a565b919050565b600067ffffffffffffffff821115611f0157611f00611e6b565b5b611f0a82611e5a565b9050602081019050919050565b82818337600083830152505050565b6000611f39611f3484611ee6565b611ecb565b905082815260208101848484011115611f5557611f54611e55565b5b611f60848285611f17565b509392505050565b600082601f830112611f7d57611f7c611e50565b5b8135611f8d848260208601611f26565b91505092915050565b600060208284031215611fac57611fab611cef565b5b600082013567ffffffffffffffff811115611fca57611fc9611cf4565b5b611fd684828501611f68565b91505092915050565b600060208284031215611ff557611ff4611cef565b5b600061200384828501611d1a565b91505092915050565b600081519050919050565b600082825260208201905092915050565b60005b8381101561204657808201518184015260208101905061202b565b83811115612055576000848401525b50505050565b60006120668261200c565b6120708185612017565b9350612080818560208601612028565b61208981611e5a565b840191505092915050565b60006040820190506120a96000830185611dcd565b81810360208301526120bb818461205b565b90509392505050565b6120cd81611d4f565b82525050565b60006020820190506120e860008301846120c4565b92915050565b60006020828403121561210457612103611cef565b5b600061211284828501611d78565b91505092915050565b6000819050919050565b600061214061213b61213684611d2f565b61211b565b611d2f565b9050919050565b600061215282612125565b9050919050565b600061216482612147565b9050919050565b61217481612159565b82525050565b600060208201905061218f600083018461216b565b92915050565b7f566f74696e67206e6f7420616c6c6f7765640000000000000000000000000000600082015250565b60006121cb601283612017565b91506121d682612195565b602082019050919050565b600060208201905081810360008301526121fa816121be565b9050919050565b7f53656e64657220616c726561647920766f746564000000000000000000000000600082015250565b6000612237601483612017565b915061224282612201565b602082019050919050565b600060208201905081810360008301526122668161222a565b9050919050565b7f4e487b7100000000000000000000000000000000000000000000000000000000600052601160045260246000fd5b60006122a782611cf9565b91506122b283611cf9565b9250827fffffffffffffffffffffffffffffffffffffffffffffffffffffffffffffffff038211156122e7576122e661226d565b5b828201905092915050565b7f43757272656e746c7920696e206368616c6c656e676520706572696f64000000600082015250565b6000612328601d83612017565b9150612333826122f2565b602082019050919050565b600060208201905081810360008301526123578161231b565b9050919050565b7f566f74696e6720706572696f64206f7665720000000000000000000000000000600082015250565b6000612394601283612017565b915061239f8261235e565b602082019050919050565b600060208201905081810360008301526123c381612387565b9050919050565b6000815190506123d981611d03565b92915050565b6000602082840312156123f5576123f4611cef565b5b6000612403848285016123ca565b91505092915050565b7f4e6f2070726f706f73616c20686173206265656e206d61646500000000000000600082015250565b6000612442601983612017565b915061244d8261240c565b602082019050919050565b6000602082019050818103600083015261247181612435565b9050919050565b7f50726f706f7365722073616d652061732073656e646572000000000000000000600082015250565b60006124ae601783612017565b91506124b982612478565b602082019050919050565b600060208201905081810360008301526124dd816124a1565b9050919050565b60006060820190506124f960008301866120c4565b61250660208301856120c4565b6125136040830184611dcd565b949350505050565b60008151905061252a81611df7565b92915050565b60006020828403121561254657612545611cef565b5b60006125548482850161251b565b91505092915050565b7f4e487b7100000000000000000000000000000000000000000000000000000000600052603260045260246000fd5b7f4f776e61626c653a2063616c6c6572206973206e6f7420746865206f776e6572600082015250565b60006125c2602083612017565b91506125cd8261258c565b602082019050919050565b600060208201905081810360008301526125f1816125b5565b9050919050565b7f5374696c6c20616c6c6f77696e67206368616c6c656e67657273000000000000600082015250565b600061262e601a83612017565b9150612639826125f8565b602082019050919050565b6000602082019050818103600083015261265d81612621565b9050919050565b7f566f74696e6720686173206e6f7420656e646564000000000000000000000000600082015250565b600061269a601483612017565b91506126a582612664565b602082019050919050565b600060208201905081810360008301526126c98161268d565b9050919050565b7f50726f706f73616c2072656a6563746564000000000000000000000000000000600082015250565b6000612706601183612017565b9150612711826126d0565b602082019050919050565b60006020820190508181036000830152612735816126f9565b9050919050565b7f4e487b7100000000000000000000000000000000000000000000000000000000600052602260045260246000fd5b6000600282049050600182168061278357607f821691505b602082108114156127975761279661273c565b5b50919050565b60008190508160005260206000209050919050565b600081546127bf8161276b565b6127c98186612017565b945060018216600081146127e457600181146127f657612829565b60ff1983168652602086019350612829565b6127ff8561279d565b60005b8381101561282157815481890152600182019150602081019050612802565b808801955050505b50505092915050565b60006060820190506128476000830186611dcd565b818103602083015261285981856127b2565b90506128686040830184611dcd565b949350505050565b7f4368616c6c656e67652072656a65637465640000000000000000000000000000600082015250565b60006128a6601283612017565b91506128b182612870565b602082019050919050565b600060208201905081810360008301526128d581612899565b9050919050565b7f416c726561647920616e206163746976652070726f706f73616c000000000000600082015250565b6000612912601a83612017565b915061291d826128dc565b602082019050919050565b6000602082019050818103600083015261294181612905565b9050919050565b7f566f746520646f6573206e6f74206d6174636820726573756c74730000000000600082015250565b600061297e601b83612017565b915061298982612948565b602082019050919050565b600060208201905081810360008301526129ad81612971565b9050919050565b7f416c72656164792072656465656d656400000000000000000000000000000000600082015250565b60006129ea601083612017565b91506129f5826129b4565b602082019050919050565b60006020820190508181036000830152612a19816129dd565b9050919050565b6000604082019050612a3560008301856120c4565b612a426020830184611dcd565b9392505050565b7f4f776e61626c653a206e6577206f776e657220697320746865207a65726f206160008201527f6464726573730000000000000000000000000000000000000000000000000000602082015250565b6000612aa5602683612017565b9150612ab082612a49565b604082019050919050565b60006020820190508181036000830152612ad481612a98565b9050919050565b7f4e487b7100000000000000000000000000000000000000000000000000000000600052601260045260246000fd5b6000612b1582611cf9565b9150612b2083611cf9565b925082612b3057612b2f612adb565b5b82820490509291505056fea2646970667358221220fa49de8f8d66352d31e8001268ebd4c788ed9173e89c4a65b926d57147aa1a8164736f6c63430008090033",
  "immutableReferences": {},
  "source": "// SPDX-License-Identifier: MIT\npragma solidity ^0.8.0;\n\nimport \"@openzeppelin/contracts/access/Ownable.sol\";\n\nimport \"./Token.sol\";\n\ncontract Registry is Ownable {\n    Token public token;\n\n    struct _List {\n        uint256 id;\n        string name;\n    }\n\n    uint256 listCount;\n    mapping(uint256 => _List) public list;\n    string[2] proposedItem;\n\n    uint256 costToPropose = 100 ether;\n    uint256 challengePeriod = 2;\n    uint256 votingPeriod = 3;\n\n    uint256 public proposedBlockNumber;\n    bool public allowVoting;\n    bool public isProposed;\n    bool public isChallenged;\n    uint256 proposalId = 0;\n\n    address proposer;\n    address challenger;\n\n    uint256 votesFor = 0;\n    uint256 votesAgainst = 0;\n    uint256 totalVotes = 0;\n    mapping(uint256 => uint256) public voterRewards;\n    mapping(uint256 => mapping(address => bool)) public hasVoted;\n    mapping(uint256 => mapping(address => bool)) public hasRedeemed;\n    mapping(uint256 => mapping(address => uint256)) public voterStance; // 1 = For, 2 = Against\n    mapping(uint256 => uint256) public proposalState; // State of proposal (0 = Active, 1 = Approved, 2 = Rejected)\n\n    event List(uint256 id, string name, uint256 proposalId);\n\n    constructor(address _token) {\n        token = Token(_token);\n    }\n\n    function propose(string memory _name) public {\n        // A token holder can propose a new item to the list\n\n        // Make sure there is not an active proposal\n        require(isProposed == false, \"Already an active proposal\");\n\n        // First we want to transfer tokens from the user to this contract\n        require(token.transferFrom(msg.sender, address(this), costToPropose));\n\n        proposedItem[0] = _name;\n        isProposed = true;\n        proposer = msg.sender;\n        proposedBlockNumber = block.number;\n    }\n\n    function challenge(string memory _name) public {\n        // A token holder can challenge a proposed item\n\n        // Make sure there is a proposal to challenge\n        require(isProposed, \"No proposal has been made\");\n\n        // Prevent the proposer from challenging\n        require(proposer != msg.sender, \"Proposer same as sender\");\n\n        // Transfer tokens from the user to this contract\n        require(token.transferFrom(msg.sender, address(this), costToPropose));\n\n        proposedItem[1] = _name;\n        isChallenged = true;\n        challenger = msg.sender;\n        proposalId = proposalId + 1;\n\n        // Once a challenge has been sent allow voting\n        allowVoting = true;\n    }\n\n    function vote(bool _isFor) public {\n        require(allowVoting, \"Voting not allowed\");\n        require(\n            hasVoted[proposalId][msg.sender] == false,\n            \"Sender already voted\"\n        );\n        require(\n            block.number > proposedBlockNumber + challengePeriod,\n            \"Currently in challenge period\"\n        );\n        require(\n            block.number <=\n                proposedBlockNumber + (challengePeriod + votingPeriod),\n            \"Voting period over\"\n        );\n\n        hasVoted[proposalId][msg.sender] = true;\n        totalVotes = totalVotes + 1;\n\n        if (_isFor) {\n            votesFor = votesFor + token.getVotes(msg.sender);\n            voterStance[proposalId][msg.sender] = 1;\n        } else {\n            votesAgainst = votesAgainst + token.getVotes(msg.sender);\n            voterStance[proposalId][msg.sender] = 2;\n        }\n    }\n\n    function approveProposal() public onlyOwner {\n        // If majority accepted, we call this, distribute tokens, and add item to list\n\n        require(\n            block.number > proposedBlockNumber + challengePeriod,\n            \"Still allowing challengers\"\n        );\n\n        // If proposal hasn't been challenged after the challenge period, add it to the list\n        if (isChallenged) {\n            // Prevent adding if we are still in challenge/voting period\n            require(\n                block.number >\n                    proposedBlockNumber + (challengePeriod + votingPeriod),\n                \"Voting has not ended\"\n            );\n\n            // Make sure votesFor is greater than votesAgainst\n            require(votesFor > votesAgainst, \"Proposal rejected\");\n        }\n\n        // Update state to approved\n        proposalState[proposalId] = 1;\n\n        // Add proposed item to the list\n        listCount = listCount + 1;\n        list[listCount] = _List(listCount, proposedItem[0]);\n\n        // Transfer funds\n        _transferFunds(proposer, proposalId);\n\n        // Reset proposals/challenges\n        _reset();\n\n        emit List(listCount, list[listCount].name, proposalId);\n    }\n\n    function rejectProposal() public onlyOwner {\n        // If majority rejected, we call this, distrbute tokens, and add the challenged item to the list?\n\n        // Prevent adding if we are still in challenge/voting period\n        require(\n            block.number >\n                proposedBlockNumber + (challengePeriod + votingPeriod),\n            \"Voting has not ended\"\n        );\n\n        // Make sure votesFor is greater than votesAgainst\n        require(votesAgainst >= votesFor, \"Challenge rejected\");\n\n        // Update state to rejected\n        proposalState[proposalId] = 2;\n\n        // Add proposed item to the list\n        listCount = listCount + 1;\n        list[listCount] = _List(listCount, proposedItem[1]);\n\n        // Transfer funds\n        _transferFunds(challenger, proposalId);\n\n        // Reset proposals/challenges\n        _reset();\n\n        emit List(listCount, list[listCount].name, proposalId);\n    }\n\n    function redeem(uint256 _proposalId) public {\n        // This will allow voters to redeem their tokens\n\n        // Make sure user has voted\n        require(hasVoted[_proposalId][msg.sender] == true);\n        require(voterRewards[_proposalId] > 0);\n\n        // Make sure proposal state matches what the voter voted for\n        require(\n            voterStance[_proposalId][msg.sender] == proposalState[_proposalId],\n            \"Vote does not match results\"\n        );\n\n        require(\n            hasRedeemed[_proposalId][msg.sender] == false,\n            \"Already redeemed\"\n        );\n\n        hasRedeemed[_proposalId][msg.sender] = true;\n\n        // Transfer the respected amount to voter\n        token.transfer(msg.sender, voterRewards[_proposalId]);\n    }\n\n    function _transferFunds(address _winner, uint256 _proposalId) internal {\n        // Winner gets back the base cost + 50% from the losing proposer/challenger\n        uint256 amountToWinner = costToPropose + (costToPropose / 2);\n        token.transfer(_winner, amountToWinner);\n\n        // Other 50% is split among other voters.\n        voterRewards[_proposalId] = (costToPropose / 2) / totalVotes;\n    }\n\n    function _reset() internal {\n        proposedItem[0] = \"\";\n        proposedItem[1] = \"\";\n\n        allowVoting = false;\n        isProposed = false;\n        isChallenged = false;\n\n        proposer = address(0x0);\n        challenger = address(0x0);\n\n        votesFor = 0;\n        votesAgainst = 0;\n        totalVotes = 0;\n    }\n\n    // Public view functions\n    function getProposalEndBlock() public view returns (uint256) {\n        return proposedBlockNumber + (challengePeriod + votingPeriod);\n    }\n}\n",
  "sourcePath": "/mnt/c/pr0/token_curated_registry/contracts/Registry.sol",
  "compiler": {
    "name": "solc",
    "version": "0.8.9+commit.e5eed63a.Emscripten.clang"
  },
  "schemaVersion": "3.4.2",
  "updatedAt": "2022-04-03T10:45:05.316Z",
  "networkType": "ethereum",
  "devdoc": {
    "kind": "dev",
    "methods": {
      "owner()": {
        "details": "Returns the address of the current owner."
      },
      "renounceOwnership()": {
        "details": "Leaves the contract without owner. It will not be possible to call `onlyOwner` functions anymore. Can only be called by the current owner. NOTE: Renouncing ownership will leave the contract without an owner, thereby removing any functionality that is only available to the owner."
      },
      "transferOwnership(address)": {
        "details": "Transfers ownership of the contract to a new account (`newOwner`). Can only be called by the current owner."
      }
    },
    "version": 1
  },
  "userdoc": {
    "kind": "user",
    "methods": {},
    "version": 1
  }
}